S01900006F70656E626C745F73746D33326C3437362E73726563F2
S325080000000000012005050008A5040008A7040008A9040008AB040008AD0400080000000016
S32508000020000000000000000000000000AF040008B104000800000000B3040008B5040008BA
S32508000040550500085505000855050008550500085505000855050008550500085505000882
S32508000060550500085505000855050008550500085505000855050008550500085505000862
S32508000080550500085505000855050008550500085505000855050008550500085505000842
S325080000A0550500085505000855050008550500085505000855050008550500085505000822
S325080000C0550500085505000855050008550500085505000855050008550500085505000802
S325080000E05505000855050008550500085505000855050008550500085505000855050008E2
S325080001005505000855050008550500085505000855050008550500085505000855050008C1
S325080001205505000855050008550500085505000855050008550500085505000855050008A1
S32508000140550500085505000855050008550500085505000855050008550500085505000881
S325080001605505000855050008550500085505000855050008550500085505000800000000C3
S32508000180550500085505000810B5054C237833B9044B13B10448AFF300800123237010BDEB
S325080001A03000002000000000E023000808B5034B1BB103490348AFF3008008BD0000000081
S325080001C034000020E023000808B501F03DFE08BD08B501F047FE08BD08B5094BD3F89430AC
S325080001E013F0005F08D0064AD2F8943043F40003C2F89430002008BD00F01CF80120FAE736
S32508000200001002400A4B9B78FF2B04D00278FF2A03D0002070470023F8E7022901D00020AD
S32508000220704742789A4201D0012070470020704700F80308014B20229A6270470004004853
S3250800024070B58AB00024049405940694079408940994194BDA6C42F00402DA64DA6C02F016
S3250800026004020392039ADA6C42F08002DA64DA6C02F080020292029ADA6C42F00202DA645C
S32508000280DB6C03F002030193019B0C4D2026AE614FF40053049304A9094800F0F1FF04968E
S325080002A00123059306940794089404A9284600F0E7FF0AB070BD00BF00100240000400486E
S325080002C00008004808B52D4A136823F0070343F004031360294B1B6803F00703042BF9D15A
S325080002E0274A136823F4C06343F40073136002F5D032136843F480731360224B1B6813F4A5
S32508000300806FFAD01F4B5A6822F0F85242F080525A60D9681C4A0A4042F4206242F00202F1
S32508000320DA60DA6842F08072DA601A6842F080721A60144B1B6813F0007FFAD0114A936831
S3250800034043F0030393600F4B9B6803F00C030C2BF9D10C4B9A6822F0F0029A609A6822F494
S32508000360E0629A609A6822F460529A60074801F0C5F9002000F008F908BD00BF002002407A
S3250800038000700040001002408C80FFF900B4C40408B500F021F9FFF795FFFFF751FFFFF740
S325080003A013FFFFF715FFFCE782B00A4B1A6E42F001021A661A6E02F001020092009A9A6DBC
S325080003C042F080529A659B6D03F080530193019B02B070470010024000B589B000230393AC
S325080003E004930593069307930268144B9A4202D009B05DF804FB03F5D6339A6D42F000725D
S325080004009A659A6D02F000720192019ADA6C42F00202DA64DB6C03F002030293029B4FF4C8
S325080004204073039302230493032306930923079303A9034800F08CFDDAE700BF0064004090
S325080004400004004810B501F0F1F84FF090442023A362114800F07CFE104800F079FE204660
S3250800046000F076FE0E4B9A6D22F000729A65DA6C22F00402DA64DA6C22F00202DA64DA6CAB
S3250800048022F00102DA649A6D22F080529A651A6E22F001021A6610BD00080048000400488B
S325080004A0001002407047FEE7FEE7FEE7FEE770477047704708B500F0A5F808BD0F49D1F83C
S325080004C0883043F47003C1F888300D4B1A6842F001021A60002098601A6822F0A85222F4F6
S325080004E010221A604FF48052DA601A6822F480221A6098614FF000638B60704700ED00E035
S3250800050000100240DFF834D0FFF7D8FF002103E00B4B5B58435004310A480B4B42189A4220
S32508000520F6D30A4A02E0002342F8043B084B9A42F9D301F031FFFFF72BFFFEE700000120D0
S32508000540BC240008000000203000002030000020AC040020FEE7000010B50A4B4FF0FF32A6
S325080005609A63DA6300249C63DC631A641C649A629C62DA62DC621A631C63FFF763FF2046A5
S3250800058010BD00BF00100240104B1B780BB90120704710B504464FF47A70B0FBF3F30C4AC2
S325080005A01068B0FBF3F000F007FB68B90F2C01D901200AE0002221464FF0FF3000F0C4FA4F
S325080005C0044B1C60002000E0012010BD04000020000000200800002010B5094A136843F41E
S325080005E080731360032000F09DFA0020FFF7CCFF10B10124204610BD0446FFF7D5FEF9E7F0
S3250800060000200240034B1B78034A11680B441360704700BF040000204C000020002800F0E3
S32508000620A18038B5044690F82030D3B12268136843F00103136001F0C1FB054623685A6804
S3250800064012F0010F10D101F0B9FB401B0A28F5D9636A43F400336362052384F82030012088
S3250800066038BDFFF7B9FEE1E71A6822F002021A6001F0A4FB054623685A6812F0020F0DD0D8
S3250800068001F09CFB401B0A28F5D9636A43F400336362052384F820300120E1E7227E012AC5
S325080006A03DD01A6822F080021A60637E012B3BD02268136823F040031360A37E012B39D053
S325080006C02268136823F020031360E37E012B37D02268136843F010031360237F012B35D039
S325080006E02268136823F008031360637F012B33D02268136823F004031360A368E268134308
S3250800070022691343626913436268013A21681343CB6100206062012384F82030A0E71A68DE
S3250800072042F080021A60C0E72268136843F040031360C2E72268136843F020031360C4E7C6
S325080007402268136823F010031360C6E72268136843F008031360C8E72268136843F004039C
S325080007601360CAE701207047026890F82030013BDBB2012B05D9436A43F48023436201200D
S32508000780704730B4D2F8003243F00103C2F800324B6903F01F03012000FA03F3D2F81C02CF
S325080007A06FEA030C20EA0300C2F81C02C869B0B9D2F80C020CEA0000C2F80C028C884869E9
S325080007C0CD6844EA0544483042F830400C8848698D6844EA0544483002EBC0004460C86992
S325080007E001281BD0886980BBD2F804020CEA0000C2F80402086970BBD2F814020CEA0000B3
S32508000800C2F81402096A01292BD0D2F8003223F00103C2F80032002030BC7047D2F80C02C8
S325080008201843C2F80C028C8848690D6844EA0544483042F830408C8948698D6844EA054482
S32508000840483002EBC0004460CCE7D2F804021843C2F80402CEE7D2F814021843C2F8140263
S32508000860D0E7D2F81C120B43C2F81C32CDE770B5044690F82050EDB2012D06D0436A43F4C3
S32508000880002343620125284670BD022380F820300268136823F00103136001F08FFA06469F
S325080008A023685B6813F0010F0CD001F087FA831B0A2BF5D9636A43F400336362052384F83A
S325080008C02030E0E700256562DDE730B590F820C00468A4680CF1FF3C5FFA8CFCBCF1010FA8
S325080008E062D814F0E05F59D0C4F3016C012404FA0CF41C608B68002B3DD10D68CB68046841
S3250800090043EA45550CF118031B01E55003680C690CF1180E03EB0E135C600B7D012B35D012
S32508000920D17993791B0443EA0163517943EA012314790168234301EB0C11C1F88C31D17864
S3250800094093781B0443EA0163517843EA0123117802680B4302EB0C12C2F8883102680CF18E
S32508000960180C4FEA0C1C52F80C3043F0010342F80C3000201DE04C6843EAC403CC68234352
S325080009800CF11804240105682B51BFE7036803EB0E13596841F480715960C1E7436A43F4D6
S325080009A000134362012004E0436A43F480234362012030BD90F82030013BDBB2012B01D98B
S325080009C00020704703689B6803EA8163B3EB816F01D0012070470020704790F820C00CF180
S325080009E0FF3C5FFA8CFCBCF1010F00F2958030B451B90468E46814F0030F10D1436A43F488
S32508000A0000134362012077E00468246914F0030F05D1436A43F40013436201206CE001F1B8
S32508000A201B04240105682C5904F004049460002C64D101F11B04240105682C59640D146014
S32508000A40046801F11B0C4FEA0C1C54F80C4004F00204D46004686444646804F00F04146180
S32508000A60046864446468C4F307249461046864446468240C5461026802EB0112D2F8B821DF
S32508000A801A70026802EB0112D2F8B821C2F307225A70026802EB0112D2F8B821C2F30742FE
S32508000AA09A70026802EB0112D2F8B821120EDA70026802EB0112D2F8BC211A71026802EBB4
S32508000AC00112D2F8BC21C2F307225A71026802EB0112D2F8BC21C2F307429A71026802EB34
S32508000AE00112D2F8BC21120EDA7179B90268D36843F02003D360002030BC704701F11B048F
S32508000B00240105682C59E408546099E70268136943F020031361EEE7436A43F480234362DF
S32508000B2001207047074AD36823F4E0631B041B0C000200F4E060034343F0BF6343F4003368
S32508000B40D360704700ED00E000B5194BDB68C3F30223C3F1070CBCF1040F28BF4FF0040CDC
S32508000B6003F1040EBEF1060F18D9033B4FF0FF3E0EFA0CFC21EA0C0199400EFA03F322EAE7
S32508000B800303194300280BDB0901C9B200F1604000F5614080F800135DF804FB0023E5E75D
S32508000BA000F00F000901C9B2024B1954F4E700BF00ED00E014ED00E00138B0F1807F0BD2EB
S32508000BC04FF0E0235861054AF02182F823100020986107221A6170470120704700ED00E0E6
S32508000BE010B4064C616941F0010161610260BFF36F8F43605DF8044B704700BF00200240E1
S32508000C00094A536943F480235361EFF3108C72B6402351F8042B40F8042B013B13F0FF0300
S32508000C20F7D18CF31088704700200240094B5B69002B01DB00207047064B074A9A6002F129
S32508000C4088329A605B69002B01DB002070470120704700BF0020024023016745034A53695E
S32508000C6043F0004353610020704700BF0020024038B5044601F0A2F80546144B1B6913F44D
S32508000C80803F09D0B4F1FF3FF7D001F097F8401BA042F2D3032016E00C4B1B694CF2FA3224
S32508000CA0134009D1094B1B6913F0010F0CD0074B01221A61002006E005494A681A434A6035
S32508000CC0024A1361012038BD0020FCE7002002400C0000202DE9F0411646284A1278012AD5
S32508000CE049D004460D469846244B01221A704CF25030FFF7BDFF074608BB204B00225A606F
S32508000D001F4B1B6813F4806F1FD01D4A136823F480631360194B02221A77D4B1631E012B59
S32508000D201ED900244CF25030FFF7A2FF074624B1134A536923EA0404546100F05DF80F4B91
S32508000D4000221A703846BDE8F0810C4B00221A77E3E7324643462846FFF742FF0124E1E7DE
S32508000D6031462846FFF74CFF022C01D00024D9E74FF48024D6E70227E4E700BF0C000020D9
S32508000D800020024010F0010F04D0094A536943F00403536110F0020F04D0054A536943F4DB
S32508000DA000435361024A536943F48033536170470020024011F0010F16D00E4A536923F44D
S32508000DC0006353610B4B5A6922F4FF62C00000F4FF60104358615A6942F002025A615A69C8
S32508000DE042F480325A617047024A536943F400635361E7E700200240164B1B7FDBB2012B51
S32508000E0001D0032B10D1144A116821F400711160116841F400611160116821F40061116036
S32508000E20116841F400711160023BDBB2012B03D9084B00221A777047074B1A6842F48052A9
S32508000E401A601A6822F480521A601A6842F480621A60EDE70C00002000200240F8B53A4B7E
S32508000E601B78012B6DD004460E46374B01221A704CF25030FFF7FCFE074600285CD1324BCE
S32508000E8000225A60314B1B6813F4007F2FD02F4B1B6813F4806F26D02C4A136823F4806310
S32508000EA01360294B03221A772368012B31D04FF0FF333360A568A368E2681344AB4239D913
S32508000EC061682846FFF776FF4CF25030FFF7D0FE1E4A536923F4FF6323F00203536107462A
S32508000EE038BB0135E7E7184B01221A77DCE7174B1B6813F4806F08D0144A136823F480638D
S32508000F001360114B02221A77CEE70F4B00221A77CAE76068FFF736FF4CF25030FFF7A8FE7F
S32508000F2007460A4A536923F4004323F00403536100E03560FFF760FF034B00221A703846DC
S32508000F40F8BD0227FBE700BF0C00002000200240F0B583B000236BE085685E000324B440CA
S32508000F6025EA0405CC68B4402C438460456825EA0C054C68C4F300149C402C43446069E04C
S32508000F80C56A25EA0C0CC4F3C0049C4044EA0C04C46265E0DD08083550F8256003F0070400
S32508000FA04FEA840C0F2404FA0CF426EA040E0C6904FA0CF444EA0E0440F8254067E0062446
S32508000FC000E0002404FA0EF42C430CF1020C5C4D45F82C405B4CA568D44325EA02064F689A
S32508000FE017F4801F01D042EA0506564DAE60ED6804EA05064F6817F4001F01D042EA050649
S32508001000504DEE606D6804EA05064F6817F4003F01D042EA05064B4D6E602D682C404E68E3
S3250800102016F4803F01D042EA0504464A146001330A6832FA03F400F081804FF0010C0CFAC3
S3250800104003FC1CEA0202F2D04C6804F00304013C012C81D94C6804F0030EBEF1030F8FD06B
S325080010604C6804F00304032C0CD0C4685D004FF0030C0CFA05FC24EA0C0C8C68AC4044EA96
S325080010800C04C4604C6804F00304022C82D004684FEA430E4FF0030C0CFA0EFC24EA0C0C65
S325080010A04C6804F0030404FA0EF444EA0C0404604C6814F4403FBAD0234C256E45F00105CF
S325080010C02566246E04F001040194019C4FEA930C0CF102051A4C54F8255003F003044FEA84
S325080010E0840E0F2404FA0EF425EA0405B0F1904F3FF467AF154CA04216D004F58064A04254
S3250800110014D004F58064A04212D004F58064A04210D004F58064A0420ED004F58064A04241
S325080011203FF44DAF07244DE701244BE7022449E7032447E7042445E7052443E703B0F0BD0A
S3250800114000000140000401400010024000040048B0F1904F16D0424B98421ED0414B98423C
S3250800116029D0414B984234D0404B98423FD0404B98424AD03F4B984255D03F4B984260D0EE
S32508001180012070473D4BDA6A42F00102DA62DA6A22F00102DA620020704703F1784303F519
S325080011A00333DA6A42F00202DA62DA6A22F00202DA620020704703F1784303F50233DA6AA8
S325080011C042F00402DA62DA6A22F00402DA620020704703F1784303F50133DA6A42F00802C3
S325080011E0DA62DA6A22F00802DA620020704703F1784303F50033DA6A42F01002DA62DA6A50
S3250800120022F01002DA620020704703F1784303F5FE33DA6A42F02002DA62DA6A22F0200265
S32508001220DA620020704703F1F82303F58033DA6A42F04002DA62DA6A22F04002DA620020EB
S32508001240704703F1784303F5FA33DA6A42F08002DA62DA6A22F08002DA620020704700BF17
S325080012600004004800080048000C0048001000480014004800180048001C004800100240A6
S32508001280F0B40A6892FAA2F212B1B2FA82F24EE020224CE08E68856893FAA3F4E4B1B4FA41
S325080012A084F464004FF0030C0CFA04F425EA040593FAA3F494B1B4FA84F4640006FA04F4F5
S325080012C02C4384600D68CE68446824EA050406FB05F52C43446039E02024E2E72024ECE7F4
S325080012E020243BE0202446E0202456E02024A40006FA04F42C4304624E68056893FAA3F4A1
S32508001300002C75D0B4FA84F464004FF0030C0CFA04F425EA040493FAA3F3002B6AD0B3FA2C
S3250800132083F35B0006FA03F32343036001320B6833FA02F460D04FF0010C0CFA02FC1CEAC0
S325080013400303F3D04C68013C012CA3D90E69C56893FAA3F4002CC3D0B4FA84F464004FF0CC
S32508001360030C0CFA04F425EA040593FAA3F4002CB8D0B4FA84F4640006FA04F42C43C4604D
S325080013804C68022CB8D1FF2B14D84E69056A93FAA3F4002CA8D0B4FA84F4A4000F2707FACF
S325080013A004F425EA040593FAA3F4002C9ED0B4FA84F49CE74F69466A1C0A94FAA4F59DB1A5
S325080013C0B5FA85F5AD004FF00F0C0CFA05F526EA050594FAA4F44CB1B4FA84F4A40007FAC7
S325080013E004F42C43446287E72025EBE72024F5E7202489E7202394E70020F0BC7047000038
S32508001400034B9B68C3F30313024AD35CD840704700100240F8230008034B9B68C3F30223B6
S32508001420024AD35CD84070470010024008240008034B9B68C3F3C223024AD35CD840704798
S3250800144000100240082400083A4BDB6803F00303022B57D0032B57D0012B12D0354B1B687D
S3250800146013F0080337D1334A126812F0080F41D1304BD3F89430C3F303232F4A52F823005A
S3250800148043E02C4B1B6813F008030ED0294B1B6813F0080F1AD1274BD3F894301B0903F021
S325080014A0F003254A52F823002FE0224A126812F0080F08D11F4BD3F89430C3F303231E4A2B
S325080014C052F8230021E01B4A1268F8E7194B1B68C3F30313E5E7174B1B6813F0080F0CD177
S325080014E0144BD3F894301B0903F0F003124A52F823000AE00F4A1268BFE70E4B1B68C3F328
S325080015000313F3E70D4800E00D480A4AD368C3F302130133B0FBF3F0D368C3F3062303FB0F
S3250800152000F0D368C3F3416301335B00B0FBF3F0704700BF00100240102400080024F400DF
S32508001540002D310108B5354B9B6803F00C030C2B37D8DFE803F009363636073636366036F2
S32508001560363633002E482BE02C4B1B6813F008030ED02A4B1B6813F0080F1AD1274BD3F81D
S3250800158094301B0903F0F003264A52F8230017E0224A126812F0080F08D1204BD3F89430C9
S325080015A0C3F303231F4A52F8230009E01B4A1268F8E71A4B1B68C3F30313E5E7FFF744FF0B
S325080015C008BD164B1B6813F008030DD1134A126812F0080F17D1114BD3F89430C3F30323C9
S325080015E0104A52F82300EBE70C4B1B6813F0080F0CD10A4BD3F894301B0903F0F003094A32
S3250800160052F82300DCE7054A1268E9E7034B1B68C3F30313F3E70448D2E700BF0010024066
S325080016200024F40010240008002D310182B0294A136843F001031360264B1B6813F0020F17
S32508001640FAD0244B1A6822F0F00242F060021A605A6822F47F425A605A6822F0F85242F00C
S3250800166080525A6000229A601A68019201991A4A0A400192019A22F080620192019A22F0F5
S3250800168080520192019A1A60124B1B6813F0285FFAD1104B4FF48052DA601A615A611A682B
S325080016A022F480221A600020986140F23F320192019A42F040020192019A42F08002019217
S325080016C0019A1A62D3F8942042F40002C3F8942002B0704700100240FFF4FEFE10B5044606
S325080016E0FFF730FF2060FFF78BFE6060FFF794FEA0606068FFF79CFEE06010BD014B186047
S32508001700704700BF0000002072B6704762B670472DE9F04184B004460D4617469846684676
S32508001720FFF7DCFF0299174BA3FB01318909002301E00133DBB2112B1FD8134A12F81300F9
S3250800174002EB4302527800EB020C0CFB044CB1FBFCFE0CFB1E16002EEBD11FFA8EFCA5F824
S3250800176000C00CF1FF3C1FFA8CFCBCF5806FE0D2387088F80020012000E0002004B0BDE8AE
S32508001780F08100BFD34D62108824000870B58CB00023ADF82E308DF82D308DF82C300BABC5
S325080017A00DF12D020DF12E014FF4FA70FFF7B0FF002835D01D4C1E4B236000252576657652
S325080017C0A5760126E67625776577A560E5609DF82D30013B1B0423619DF82C30013B1B057D
S325080017E06361BDF82E3063602046FEF717FF0695079508964CF6E043019302954FF6E073D3
S32508001800039304230493059509960E230A9301A92046FEF7A9FF2046FFF729F80CB070BD4C
S32508001820AE21044800F0CEFAC4E700BF50000020006400404024000810B588B0024640F266
S32508001840E1730293002304930593069101AB02A90B48FFF73AF808B108B010BD00F0A6FA08
S3250800186000F1320401990648FFF7A4F80028F3D000F06BFB00F09AFAA042F3D9ECE700BFB4
S325080018805000002010B588B003460C4601AA00210848FFF7A2F850B9019A40F267639A420A
S325080018A006D1039B23B9059B2370012000E0002008B010BD5000002008B5FFF725FF08BDE4
S325080018C010B500F03BFA00B910BDFEF785FC0028FAD000F0F7FAFEF73FFE00F03FFA00F0F6
S325080018E031FA20F0604020F07F00044B986000F029FA4468FFF70AFFA047E5E700ED00E0EB
S3250800190070B50D46044606E015F8013B04F8013B00F01BFB3246531E9EB2002AF4D170BD35
S325080019200B4BD3F8E02591B24FF6FF7399420AD0084B03EA422303F10063834205D900F134
S325080019407840C00A7047044BF7E7C01AC00A70470070FF1F00FEFF0100000808174B1B6837
S3250800196013F4807F12D1164BD3F8E02591B24FF6FF73994208D0134B03EA422303F100638B
S32508001980834218D9012070470F4BF9E70C4BD3F8E02591B24FF6FF73994208D0094B03EA5C
S325080019A0422303F10063834203D801207047064BF9E7022070470220704700BF0000014002
S325080019C00070FF1F00FEFF010000080808B5C1F3080353B903688B4209D040F8041B4FF42A
S325080019E00072FFF78DFF012008BD0020FCE70120FAE700002DE9F8438046FFF717F9154B7D
S32508001A004FF400421A6100253F2D19D8D8F8004004EBC50408EBC503D3E9016700F095FA10
S32508001A2032463B4621460020FFF754F9814650B9D4E90023BB4208BFB24206D10135E3E796
S32508001A404FF0010901E04FF00009FFF707F94846BDE8F8830020024038B50D460C4B98428F
S32508001A6011D004460B4B994207D1094C29462046FFF7ACFF48B1204638BDFFF7BBFF00282D
S32508001A80F4D10024F7E7044CF0E70024F3E700BF7C02002000280008780000202DE9F041E0
S32508001AA006460C4617461D4621F4FF7828F001080368B3F1FF3F07D0336843450AD1316852
S32508001AC0641A3444043414E04146FFF77FFF0028F2D11FE041463046FFF7BEFF06460028CD
S32508001AE0EDD1002016E017F8013B04F8013B013D0FD000F02AFA311D611AB1F5007FF2D39D
S32508001B0008F500713046FFF7A7FF064620B1041DE9E70120BDE8F0810020FBE74FF0FF337F
S32508001B20024A1360024A1360704700BF780000207C0200200B4601F1FF3C1249091A8C45A0
S32508001B4019D81149884218D310B5191801390D4CA14214D820F4FF7121F001010A4CA1424F
S32508001B6004D001460948FFF799FF10BD01460848FFF794FFF9E700207047002070470020C2
S32508001B80F3E700BFFFFF030800280008780000207C020020F0B587B04A1E234B1B1A9A426C
S32508001BA03AD820F4FF6626F00706204B9E4237D30B18013B1C4A934234D8801B0844C0F3D4
S32508001BC0CF27C0F30A0008B10137BFB2FFF72EF8174B4FF400421A610024019401230493F0
S32508001BE0A74213D900F0B1F906EBC4252846FFF797FE03902846FFF7B1FE029005A901A806
S32508001C00FFF72CF930B90134A4B2E9E70124FFF725F802E00024FAE70024204607B0F0BD4A
S32508001C200024FAE70024F8E7FFFF0308002800080020024000B583B000230193134B1B6873
S32508001C40B3F1FF3F20D0114A5368019391680B440193D1680B44019311690B4401935169EB
S32508001C600B44019391690B440193D26913440193DB4301930133019301AA04210448FFF7E4
S32508001C8059FF03B05DF804FB0120FAE77C0200208C290008104BD3F80028D3F804181144F0
S32508001CA0D3F808281144D3F80C281144D3F810281144D3F814281144D3F818280A44D3F89A
S32508001CC08C39D34204D0054A934203D000207047012070470120704700200008EE11AA55A4
S32508001CE008B50C4B1B68B3F1FF3F06D10A4B1B68B3F1FF3F07D1012008BD0648FFF77AFE52
S32508001D000028F3D1F8E70448FFF774FE0028F3D00120F1E77C02002078000020004870471D
S32508001D200028000808B5FFF7F9FE08BD08B5FFF701FF08BD08B5FFF72DFF08BD08B5FFF727
S32508001D40A9FF08BD08B5FFF7E9FF08BD08B5FFF771FF00B908BDFFF7C3FFFBE74FF0E0232B
S32508001D6000221A615A619A617047000008B5FFF7F5FF4FF0E023044A5A6100229A61052116
S32508001D801961024B1A6008BD7F380100800400204FF0E0231B6913F4803F03D0024A1368AD
S32508001DA001331360704700BF8004002008B5FFF7EFFF014B186808BD8004002008B5FFF7CB
S32508001DC0F5FF08BD08B500F0C0F8FCE708B500F0B5F8012803D00B4B1B78012B00D008BDF4
S32508001DE0FFF7E4FF084B1B68084A1268134403F5FA739842F3D3034B00221A70FFF760FDB1
S32508001E00EDE700BF88040020840400208C04002008B5054B1B78012B00D008BDFFF7C6FF01
S32508001E20024B1860F9E700BF880400208C04002008B5044B01221A70FFF7EAFFFFF7C6FF81
S32508001E4008BD00BF8804002008B5FFF735FD00F07BF8FFF78BFFFFF765FF00F00DF8FFF737
S32508001E60E7FF08BD08B500F070F8FFF791FF00F00FF8FFF7ABFF08BD08B500F0F1F9FFF725
S32508001E8085FC024B01221A7008BD00BF2C00002000B583B00DF107010848FFF7F3FC01289D
S32508001EA002D003B05DF804FB054B01221A709DF80710024800F0EEF9F3E700BF9004002024
S32508001EC02C0000207047000008B5054B1B78012B02D000F0D9F908BDC9B2FFF7ADFCF8E7D3
S32508001EE02C000020094B1B78012B09D005D9023BDBB2012B08D9082070471BB9002070475D
S32508001F000820704708207047002070472C000020094B1B78012B09D005D9023BDBB2012B12
S32508001F2008D9082070471BB9002070470820704708207047002070472C00002008B500F09A
S32508001F409BF900B1012008BD70477047014B00225A72704798040020034BFE221A7058706D
S32508001F6002229A81704700BF980400200378427843EA0223827843EA0243C07843EA00602A
S32508001F8070470870C0F307234B70C0F307438B70000EC8707047000010B5054C00232372A9
S32508001FA0FFF7D4FFFF2323700123A38110BD00BF98040020064BFF221A7000225A70597A4A
S32508001FC09970DA701A715A7106229A81704700BF9804002008B50020FFF7BEFF08BD000080
S32508001FE010B5084CFF232370074B236100236370A370E370211D0720FFF7C3FF0823A38167
S3250800200010BD00BF98040020AC24000810B5054CFF2323700430FFF7A9FF20610123A3812C
S3250800202010BD00BF9804002008B53120FFF794FF08BD000038B5074CFF23237000256570FF
S32508002040A570FFF74FFFE07025716571A5710723A38138BD9804002038B5FFF777FF0E4C95
S3250800206001252572FF2323700023637010226270A370FFF737FFE070FFF74AFF2071FFF791
S3250800208047FFC0F307206071A571E5710823A381FFF748FE38BD00BF9804002038B50446A3
S325080020A0FFF720FF627890420ED9094D2969681CFFF726FCFF232B7062782B6913442B61D8
S325080020C063780133AB8138BD2220FFF745FFFAE79804002038B50446FFF704FF63789842C4
S325080020E013D9201DFFF742FF01460A4D28616278681CFFF705FCFF232B7062782B69134474
S325080021002B6163780133AB8138BD2220FFF724FFFAE700BF98040020F8B5054617460024C5
S3250800212006E015F8013B1C44E4B2FFF70EFF31464E1E0029F5D13C600120F8BD30B583B00D
S32508002140002501950A4CFF2323700430FFF70EFF014601AA2069FFF7DFFF6070211D01987E
S32508002160FFF70FFFA570E5700823A38103B030BD9804002038B504460C4B1D69FFF7B2FE7E
S32508002180621C411E2846FFF7D1FD58B1074CFF232370FFF7A7FE01382369034423610123C2
S325080021A0A38138BD3120FFF7D7FEFAE79804002010B50446FFF796FE01386378984212DDC9
S325080021C0114BFF221A7001229A81617879B1A21C0D4B1869FFF7AAFD88B161780A4A136993
S325080021E00B44136110BD2220FFF7B6FEFAE7FFF7ADFD0028F6D13120FFF7AEFEF2E73120C8
S32508002200FFF7AAFEEEE700BF9804002010B50A4B1C690430FFF7AAFE01462046FFF78AFD27
S3250800222028B1054BFF221A7001229A8110BD3120FFF792FEFAE700BF9804002008B5FFF7CB
S325080022403FFB034BFF221A7001229A8108BD00BF9804002008B589B2FFF736FE08BD0000D8
S32508002260044B00221A721A61DA729A819A725A72704700BF98040020024B187A00B10120B6
S32508002280704700BF98040020014B0022DA7270479804002010B50446FDF7B4FF012832D0F0
S325080022A02378FF2B23D03B4A127A012A2BD1C93B352B61D8DFE803F04860605C6060584C01
S325080022C054506060606060606060606060606060606060606060606060606060606060600C
S325080022E06060342C283060606038603C40442046FFF7B2FE274BDB7A012B41D0254BB3F9B4
S325080023000C10002940DC10BD2046FFF7C7FEF1E72046FFF7DFFEEDE72046FFF777FEE9E7DA
S325080023202046FFF70BFFE5E72046FFF759FEE1E72046FFF74FFEDDE72046FFF73BFED9E720
S325080023402046FFF729FED5E72046FFF713FFD1E72046FFF72DFFCDE72046FFF76BFEC9E759
S325080023602046FFF753FFC5E72046FFF767FFC1E72046FFF759FEBDE72020FFF7EDFDB9E774
S325080023801020FFF7E9FDB9E718460123C372FFF761FFB8E79804002070B50D4D0D4C641BC4
S325080023A0A4100026A64209D10B4D0C4C00F018F8641BA4100026A64205D170BD55F8043BF3
S325080023C098470136EEE755F8043B98470136F2E7B4240008B4240008B4240008B824000805
S325080023E0F8B500BFF8BC08BC9E467047F8B500BFF8BC08BC9E4670470000000000000000D1
S3250800240001020304060708090000000001020304A0860100400D0300801A060000350C0024
S3250800242040420F0080841E0000093D0000127A000024F40000366E010048E801006CDC02D1
S32508002440433A2F4C756E61312F616573636170655F626F6F746C6F616465725F6375626578
S325080024605F6964652F5461726765742F536F757263652F41524D434D345F53544D33324CB0
S32508002480342F63616E2E630005020602060307030803090309040A040B040C040C050D0572
S325080024A00E050F050F061006100710084F70656E424C5400AD0100088901000800093D008B
S325080024C00100000010000000000000000000000000000000000000000100000000000000DC
S311080024E0000000000000000004000000DE
S3250800280000000120ED5500087D520008875200088D520008935200089952000800000000C0
S325080028200000000000000000000000009F520008AD52000800000000BB520008C952000852
S325080028403D5600083D5600083D5600083D5600083D5600083D5600083D5600083D56000892
S325080028603D5600083D5600083D560008D55200083D5600083D5600083D5600083D560008DE
S325080028803D5600083D5600083D5600083D560008E95200083D5600083D5600083D560008AA
S325080028A0FD5200083D5600083D5600083D5600083D56000800000000000000003D560008AC
S325080028C03D5600083D5600083D5600083D5600083D5600083D5600083D5600083D56000812
S325080028E03D5600083D56000800000000000000000000000000000000000000000000000094
S32508002900000000003D560008000000003D56000800000000000000003D560008115300086C
S325080029203D5600083D5600083D5600083D5600083D56000800000000000000000000000082
S325080029403D5600083D5600083D5600083D5600083D5600083D5600083D5600083D56000891
S325080029603D5600083D5600083D560008000000003D5600083D5600083D56000800000000A7
S325080029803D5600083D5600083D560008EE11AA5510B5054C237833B9044B13B10448AFF3BC
S325080029A000800123237010BDC80000200000000074B1000808B5034B1BB103490348AFF3E0
S325080029C0008008BD00000000CC00002074B1000881F0004102E000BF83F0004330B54FEA64
S325080029E041044FEA430594EA050F08BF90EA020F1FBF54EA000C55EA020C7FEA645C7FEA18
S32508002A00655C00F0E2804FEA5454D4EB5555B8BF6D420CDD2C4480EA020281EA030382EA81
S32508002A20000083EA010180EA020281EA0303362D88BF30BD11F0004F4FEA01314FF4801C09
S32508002A404CEA113102D0404261EB410113F0004F4FEA03334CEA133302D0524263EB4303D7
S32508002A6094EA050F00F0A780A4F10104D5F1200E0DDB02FA0EFC22FA05F2801841F1000145
S32508002A8003FA0EF2801843FA05F359410EE0A5F120050EF1200E012A03FA0EFC28BF4CF099
S32508002AA0020C43FA05F3C01851EBE37101F0004507D54FF0000EDCF1000C7EEB00006EEB63
S32508002AC00101B1F5801F1BD3B1F5001F0CD349085FEA30004FEA3C0C04F101044FEA4452FB
S32508002AE012F5800F80F09A80BCF1004F08BF5FEA500C50F1000041EB045141EA050130BD60
S32508002B005FEA4C0C404141EB0101013C28BFB1F5801FE9D291F0000F04BF01460020B1FACE
S32508002B2081F308BF2033A3F10B03B3F120020CDA0C3208DD02F1140CC2F10C0201FA0CF0BD
S32508002B4021FA02F10CE002F11402D8BFC2F1200C01FA02F120FA0CFCDCBF41EA0C0190403B
S32508002B60E41AA2BF01EB0451294330BD6FEA04041F3C1CDA0C340EDC04F11404C4F120028E
S32508002B8020FA04F001FA02F340EA030021FA04F345EA030130BDC4F10C04C4F1200220FA14
S32508002BA002F001FA04F340EA0300294630BD21FA04F0294630BD94F0000F83F4801306BFCD
S32508002BC081F480110134013D4EE77FEA645C18BF7FEA655C29D094EA050F08BF90EA020F32
S32508002BE005D054EA000C04BF1946104630BD91EA030F1EBF0021002030BD5FEA545C05D1DC
S32508002C004000494128BF41F0004130BD14F580043CBF01F5801130BD01F0004545F0FE41F0
S32508002C2041F470014FF0000030BD7FEA645C1ABF194610467FEA655C1CBF0B46024650EA25
S32508002C40013406BF52EA033591EA030F41F4002130BD00BF90F0000F04BF0021704730B55A
S32508002C604FF4806404F132044FF000054FF0000150E700BF90F0000F04BF0021704730B56B
S32508002C804FF4806404F1320410F0004548BF40424FF000013EE700BF42004FEAE2014FEA4B
S32508002CA031014FEA02701FBF12F07F4393F07F4F81F06051704732F07F4208BF704793F079
S32508002CC07F4F04BF41F40021704730B54FF4607401F0004521F000411CE700BF50EA0102C5
S32508002CE008BF704730B54FF000050AE050EA010208BF704730B511F0004502D5404261EBAA
S32508002D0041014FF4806404F132045FEA915C3FF4D8AE4FF003025FEADC0C18BF03325FEA58
S32508002D20DC0C18BF033202EBDC02C2F1200300FA03FC20FA02F001FA03FE40EA0E0021FA9C
S32508002D4002F11444BDE600BF4FEA410212F5001215D211D56FF47873B3EB625212D94FEA92
S32508002D60C12343F0004343EA505311F0004F23FA02F018BF404270474FF00000704750EA7C
S32508002D80013005D111F0004008BF6FF0004070474FF00000704700BF80B483B000AF78601D
S32508002DA07B689B6823F0004323F03F0343F004027B689A6000BF0C37BD465DF8047B7047CE
S32508002DC080B500AF7F21094803F09CFE03461A46074B1A70074B084A1A60084B084A1A60C1
S32508002DE0084B074A1A6000BF80BD00BFA401002014010020FC000020000040420001002033
S32508002E000000C8411001002080B500AF06220B490B4803F04FF803461A460A4B1A70094BA1
S32508002E201B78002B07D10221054802F0B3FF03461A46044B1A7000BF80BD00BFE400002099
S32508002E40A40100201401002080B500AF0248FFF7A3FF00BF80BD00BF0000045080B584B02C
S32508002E6000AF514B1B8807EE903AF8EE677AB0EE087A67EE876A4D4B5B6907EE903AF8EE69
S32508002E80677A9FED4B7A27EE877AC6EE877AC7ED037A464BDB6807EE903AF8EE677A9FED10
S32508002EA0457A27EE877AD7ED037A67EE277A424B93ED007A9FED411AF0EE470AB0EE670A4C
S32508002EC000F008F9F0EE407A3B4BC3ED007A364B1B881A4640F6B83303FB02F2334B5B69D2
S32508002EE0B2FBF3F3BB60314B1B69BA6802FB03F3334AA2FB03239B091A46324B1B88D31AB0
S32508002F00642203FB02F2304B1B8819462D4B1B88CB1A92FBF3F31E337B607B6807EE903A6D
S32508002F20F8EEE77A294B93ED007A9FED241AF0EE470AB0EE670A00F0CDF8F0EE407A234B0B
S32508002F40C3ED007A194B9B68214A1360174B5B6807EE903AB8EE677AD7ED037A67EE277A52
S32508002F601C4B1B6807EE103AB8EE477A9FED131AF0EE470AB0EE670A00F0ACF8F0EE407A90
S32508002F80FCEEE77A17EE902A124B1A60114B1B68184600F0C7F8F0EE407A0F4BC3ED007A3A
S32508002FA000BF1037BD4680BDAA75FF1FE40000203333534008B0C83CFC0000206666663F3A
S32508002FC0F1197605A875FF1FCA75FF1F00010020040100200C0100201001002080B500AF3E
S32508002FE0054BD3ED007AB0EE670A08F097F803465BB2184680BD00BF0001002080B500AFEE
S32508003000054BD3ED007AB0EE670A08F087F803465BB2184680BD00BF1001002080B400AFCE
S32508003020034B1B681846BD465DF8047B704700BF0C01002080B400AF044B1B6807EE903A65
S32508003040B0EE670ABD465DF8047B7047FC00002080B584B000AF0346FB710023FB60FB79EA
S32508003060002B01D10123FB710023FB7210E00F48FFF792FE02210E4802F08CFE0346BB72ED
S325080030800C4B9B68FA681344FB60FB7A0133FB72FA7AFB799A42EAD3FB79FA68B2FBF3F3B4
S325080030A0054A136000BF1037BD4680BD00000450A4010020E40000200801002080B400AFD1
S325080030C0034B1B689BB21846BD465DF8047B70470801002080B487B000AF87ED030AC7ED60
S325080030E0020A87ED011A97ED017AD7ED027A27EE277AF7EE006AD7ED017A76EEE76AD7ED2B
S32508003100037A66EEA77A77EE277AC7ED057A7B6907EE903AB0EE670A1C37BD465DF8047B9A
S325080031207047000080B487B000AF78607B685B09FB757B68DAB2FB7D5B01DBB2D31ABB7534
S32508003140FB7D194A9B0013441B683B61FB7D0133154A9B0013441B68FB60BB7DC3F120038B
S3250800316007EE903AB8EEE77AD7ED047A27EE277ABB7D07EE903AF8EEE76AD7ED037A66EEC0
S32508003180A77A37EE277ADFED096AC7EE267AC7ED027ABB6807EE903AB0EE670A1C37BD462F
S325080031A05DF8047B704700BF8CB100080000004280B483B000AF0346FB71FB79182B08D9CD
S325080031C0FB792D2B05D8FB79193B054A32F8133000E0002318460C37BD465DF8047B704782
S325080031E090B3000890B583B000AF3C4B9B683B4A43F4805393603A4C3B46184600F07CF87A
S32508003200D7E90023C4E90023354B9A88354B1A80002001F083F8012001F080F8022001F008
S325080032207DF801F01FFCFFF7CBFDFFF7EDFD6420FFF70EFFFFF742FF0346184600F09AF979
S3250800324003461A46284B1A70274B1B781946274A0B465B000B445B00134402331A88244BF2
S325080032601A80214B1B781946204A0B465B000B445B00134404331A881A4B1A801C4B1B884F
S32508003280184A1288D2B21146184600F07BFA00F0E5FA184BDB68174A43F00103D360154BE6
S325080032A01B68144A43F0010313600C4B9B680B4A43F02003936001F02DFA0D4B1A88084B18
S325080032C05A80084B1A88064B9A80054BD3E9000100F044F800BF0C37BD4690BD002004E017
S325080032E018010020200100200000002004000020220100200014004080B586B000AF786079
S32508003300134BD3E90023C7E9022307F108030233062219460F4804F00BFC0346FB823B89F2
S32508003320FA8A9A420AD000237B810023BB810023FB81094BD3E9000100F010F87968D7E97E
S325080033400223C1E9002378681837BD4680BD00BF00F80308780200201801002080B588B0FC
S3250800336000AFC7E900013B460233062219461A4804F0DEFB0346BB83BB8B3B800023FB606D
S325080033807F237B610123BB61144805F0EEFB04F0CDFF07F1080207F10C031146184605F0B4
S325080033A0ABF80346FB77FB7F002B07D1D7E900230B49002004F04EFF0346FB7704F0D8FF06
S325080033C0FB7F002B03D04021022000F0C1FF00BF2037BD4680BD00BF780200209C020020C7
S325080033E000F8030880B582B000AF78607B681B68484A934240F0878000F02EFD464B1B689B
S325080034000133454A1360444B1B68632B02D9424B00221A60414B1B680133404A13603F4BFA
S325080034201B68B3F5967F2AD93D4805F09EFB00F063FA01F057F90346002B04D02021394890
S3250800344005F02AFB04E000222021364805F00CFB324B00221A60344B1B78092B0FD8324BC0
S325080034601B780133DAB2304B1A702F4B1B780A2B05D12D4B64221A70282001F07FFA2B4B1E
S325080034801B8801339AB2294B1A80284B1B88FA2B04D901F099FA254B00221A801E4B19683B
S325080034A0234BA3FB0123DA0813469B0013445B00CA1A204B1A601F4B1B68082B25D801A2BD
S325080034C052F823F00B350008E93400080B3500080B350008FB340008013500080B350008C7
S325080034E00B3500080B350008FFF7B8FC00F07CF800F02EF8FFF7A8FC08E000F0BFF805E0FC
S3250800350000F0F0F802E000BF00E000BF00BF0837BD4680BD00140040240100202801002065
S325080035209C020020000400482C0100202E010020CDCCCCCC3001002080B582B000AF786067
S325080035402021022000F004FF00BF0837BD4680BD80B500AF1021064805F06EFA0346002B95
S3250800356003D10421022000F0F3FE00BF80BD00BF0004004880B485B000AF0346FB8000233B
S32508003580BB8100237B810023FB7320E0FA7B154913465B0013445B000B441B883233BB8165
S325080035A0FA7B104913465B0013445B000B441B88323B7B81FA88BB899A4205D2FA887B896F
S325080035C09A4201D9FB7B06E0FB7B0133FB73FB7B0F2BDBD90F2318461437BD465DF8047B9D
S325080035E0704700BF0400002080B582B000AFFFF721FD87ED010AFFF7F1FC0346FB70FFF7ED
S32508003600FDFC0346BB70D7ED017A9FED1A7AF4EEC77AF1EE10FA06DB01F0A4F90221022010
S3250800362000F096FE0EE0D7ED017A9FED137AF4EEC77AF1EE10FA05D801F094F90121022007
S3250800364000F086FE97F90330682B05DD01F08AF91021022000F07CFE97F90230312B05DD7F
S3250800366001F080F90821022000F072FE00BF0837BD4680BD000050420000184280B584B094
S3250800368000AFFFF7ABFC0346FB73FFF7B7FC0346BB6097F90F30114A92F900209B1A002B57
S325080036A0B8BF5B42FB710E4B1B68BA68D31A002BB8BF5B423B6097F90730022B02DC3B6842
S325080036C0002B07D000F073F9044AFB7B1370044ABB68136000BF1037BD4680BD34010020B8
S325080036E03801002080B582B000AFFFF7A3FC87ED010A0F4BD3ED007A97ED017A77EE677A60
S32508003700F0EEE77AC7ED007AD7ED007AB6EE007AF4EEC77AF1EE10FA00DA04E000F0C0F95F
S32508003720034A7B68136000BF0837BD4680BD00BF3C01002080B483B000AF786039607A6815
S325080037403B689A4201D93B6800E07B6818460C37BD465DF8047B704780B400AFBFF34F8FFA
S3250800376000BF064BDB6803F4E0620449044B1343CB60BFF34F8F00BF00BFFDE700ED00E0D3
S325080037800400FA0580B58CB000AF03460A46FB8013467B712D4A7B7913702D4AFB88138024
S325080037A007F1080328220021184607F069FC0023FB6100237B6200233B624CF6E043FB60D4
S325080037C04FF6E0737B614FF62043BB604FF6E0733B610023BB610123BB6207F1080319468E
S325080037E01C4803F0EAFA03461A461B4B1A700123FB6100237B6200233B62154B1B885B0148
S32508003800FB604FF4F0737B61114B1B885B01BB604FF4F0733B610023BB610123BB6207F18D
S32508003820080319460B4803F0C8FA03461A460A4B1A700221074803F0B0FD03461A46064B74
S325080038401A7000BF3037BD4680BD00BF9201002090010020500200204001002080B500AF90
S32508003860044803F074FB03461A46034B1A7000BF80BD00BF500200204001002080B58EB00A
S3250800388000AF0346B9607A60FB810023BB610023FB610023FB620023BB62144B1A88FB89B0
S325080038A013439BB23B6208217868FFF743FF03463B63002387F83430BB68002B05D007F171
S325080038C01803B968184600F067FC07F1140307F1180207F12001064803F07DFB03461A4651
S325080038E0044B1A7000BF3837BD4680BD90010020500200204001002080B582B000AF00F0E9
S32508003900F1FE03463B713B1D012219464FF4C060FFF7B4FF00BF0837BD4680BD80B582B02A
S3250800392000AF0023BB80022000F090FE0346002B0DD0BB8843F400739BB2BB80022000F0F4
S3250800394085FE0346BA889BB213439BB2BB80002000F07CFE0346002B0AD0BB88BB800020AA
S3250800396000F074FE0346BA889BB213439BB2BB80012000F06BFE0346002B0DD0BB8843F4DC
S3250800398080739BB2BB80012000F060FE0346BA889BB213439BB2BB803B1D022219464FF45B
S325080039A01870FFF76BFF00BF0837BD4680BD80B582B000AFFFF722FB03463B71FFF70EFBB6
S325080039C003467B713B1D022219464FF4E260FFF755FF00BF0837BD4680BD80B588B000AFA0
S325080039E0012001F067F803461A463A72C3F307227A72C3F30743BB723B7A3B70012001F089
S32508003A0059F803461A463A73C3F307227A73C3F30743BB737B7B7B70012001F04BF8034678
S32508003A201A463A74C3F307227A74C3F30743BB74BB7CBB70002001F03DF803461A463A756E
S32508003A40C3F307227A75C3F30743BB753B7DFB70012001F02FF803461A463A76C3F30722C6
S32508003A607A76C3F30743BB767B7E3B71012001F021F803461A463A77C3F307227A77C3F367
S32508003A800743BB77BB7F7B713B46062219464FF4E660FFF7F3FE00BF2037BD4680BD0000A8
S32508003AA080B582B000AFFFF7C5FAF0EE407A9FED0D7A67EE877AFCEEE77A17EE903A9BB2C5
S32508003AC0BB80BB88184600F0D9FB0346BB803B1D022219464FF49070FFF7D0FE00BF0837D4
S32508003AE0BD4680BD0000804380B582B000AF4FF4D073FB80FFF792FA03463B603B68184637
S32508003B0000F0EEFB03463B603946FB8804221846FFF7B4FE00BF0837BD4680BD80B586B003
S32508003B2000AF4FF00003FB604FF00003BB604FF000037B603A1D07F1080107F10C031846F4
S32508003B4000F054FFD7ED037A9FED337A67EE877A17EE900AFFF7A0F802460B4643EC102B14
S32508003B6007F096FA53EC102B10461946FFF7ECF803461BB29BB2184600F080FB03461BB265
S32508003B803B82D7ED027A9FED247A67EE877A17EE900AFFF781F802460B4643EC102B07F092
S32508003BA077FA53EC102B10461946FFF7CDF803461BB29BB2184600F061FB03461BB27B827C
S32508003BC0D7ED017A9FED147A67EE877A17EE900AFFF762F802460B4643EC102B07F058FAED
S32508003BE053EC102B10461946FFF7AEF803461BB29BB2184600F042FB03461BB2BB8207F1B3
S32508003C001003062219464FF42870FFF737FE00BF1837BD4680BD00BF0000C84280B584B076
S32508003C2000AF0346FB80FB88184600F027FB0346BB8107F10C03022219462020FFF71EFEAF
S32508003C4000BF1037BD4680BD80B584B000AF0346FB80FB88184600F011FB0346BB8107F1DA
S32508003C600C03022219461020FFF708FE00BF1037BD4680BD2DE9B04FA6B000AFF866734BFC
S32508003C801B685A1C714B1A60704B1B68042B02D16E4A0023136007F1740307F17C02002153
S32508003CA0F86E03F068FA0346694A1370D7F89420664B1B68D1B2674A1B011A440B46137083
S32508003CC0D7F88C20614B1B68D1B2624A1B0113445A1C0B461370FA6F5C4B1B6891B25D4AC3
S32508003CE01B0113449A1C0B46138097F87430DBB200223B667A6697F87530DBB200221C4601
S32508003D0015464FF000024FF000032B0243EA14632202D7E91845214641EA020A294641EA6D
S32508003D20030B97F87630DBB20022BB65FA654FF000024FF00003D7E9164529460B04214681
S32508003D4043EA114321460A044AEA020139654BEA03037B6597F87730DBB20022BB64FA640D
S32508003D60D7E912120B464FEA13290B464FEA0368D7E914120B4643EA08033B64134643EA02
S32508003D8009037B6497F87830DBB20022BB63FA634FF000024FF00003B96B0B000022D7E935
S32508003DA0104521461143396329461943796397F87930DBB20022BB62FA624FF000024FF0C2
S32508003DC00003B96A0B020022D7E90C4521461143396229461943796297F87A30DBB200228B
S32508003DE0BB61FA614FF000024FF00003B9690B040022D7E90845214611433961294619433B
S32508003E00796197F87B30DBB20022BB60FA604FF000024FF00003B9680B0600220B490968C0
S32508003E20D7E90445204610433860284618437860084A0B0113440833D7E90012C3E90012F9
S32508003E4000BF9837BD46BDE8B08F00BF88010020400100204801002080B500AF0D4B1A68EF
S32508003E600D4B1B689A4213D00B4B1B6801330A4A1360094B1B68042B02D1074B00221A60FF
S32508003E80054B1B681B01054A1344184600F008F800BF80BD880100208C0100204801002076
S32508003EA080B52DED028B88B000AF78608021022000F0AEFB7B685B8803F47F63FB837B68FD
S32508003EC01B78002B1AD17B685B78022B40F056817B680833BB60BB685B789AB2AA4B1B882E
S32508003EE09A4240F04B8140F26760FFF797FE01222021A64804F0B8FDFFF72EFC7B681B78C7
S32508003F00012B00F03B81FB8BB3F5E46F00F0A380B3F5E46F00F32981B3F5E06F00F0948094
S32508003F20B3F5E06F00F32181B3F52C7F00F0BF80B3F52C7F00F31981B3F5247F00F0BE800C
S32508003F40B3F5247F00F31181B3F5207F00F0A880B3F5207F00F30981B3F51C7F00F082802B
S32508003F60B3F51C7F00F30181B3F5147F5FD0B3F5147F00F3FA80B3F5B07F00F0F080B3F58A
S32508003F80B07F00F3F280B3F5887F56D0B3F5887F00F3EB80F02B03D0B3F5807F29D0E4E04B
S32508003FA07B685B78052B1ED1794B1B78012B1AD1022000F05BFB0346002B0FD07B680833D7
S32508003FC0FB60012000F0E6FBFB8B1846FFF726FEFB681B78184600F0C3FB09E0FB8B1846B9
S32508003FE0FFF732FE04E0FB8B1846FFF72DFEC5E0C4E07B685B78022B14D1FB8B1846FFF7B9
S325080040000DFE7B6808333B613B691B889BB21B0A9AB23B691B889BB2DBB21946104600F002
S32508004020F7FAABE0FB8B1846FFF70EFEA6E0FB8B1846FFF7F3FDFFF771FCFB8B1846FFF783
S32508004040EDFDFFF72DFD99E0FB8B1846FFF7E6FDFFF7ADFC92E0FB8B1846FFF7DFFDFFF755
S32508004060BCFC8BE07B685B78012B14D17B6808337B617B691B78184600F080FC0346002B99
S3250800408004D0FB8B1846FFF7C9FD77E0FB8B1846FFF7DAFD72E0FB8B1846FFF7D5FD6DE04B
S325080040A0FB8B1846FFF7BAFD00F05CFC66E0FB8B1846FFF7B3FDFFF731FD5FE07B685B7830
S325080040C0062B47D17B680833BB61BB69B3F900301BB2184600F0EAF8034607EE903AF8EE64
S325080040E0E77A9FED2C7A27EE878ABB69B3F902301BB2184600F0DAF8034607EE903AF8EE1C
S32508004100E77A9FED247A67EE878ABB69B3F904301BB2184600F0CAF8034607EE903AF8EED1
S32508004120E77A9FED1C7A67EE877AB0EE671AF0EE680AB0EE480A00F073FC0346002B04D092
S32508004140FB8B1846FFF76AFD18E0FB8B1846FFF77BFD13E0FB8B1846FFF776FD0EE0FB8B12
S325080041601846FFF771FDFFF7BFFCFB8B1846FFF76BFD8021022000F0EBF800BF00BF203711
S32508004180BD46BDEC028B80BD9001002000040048920100200AD7233C80B483B000AF7860BD
S325080041A039603B68D3E90023D2B27B681A703B68D3E900014FF000024FF00003020A42EACA
S325080041C001620B0A79680131D3B20B703B68D3E900014FF000024FF00003020C42EA0142E6
S325080041E00B0C79680231D3B20B703B68D3E900014FF000024FF00003020E42EA01220B0E2B
S3250800420079680331D3B20B703B68D3E900014FF000024FF000030A00002379680431D3B2D0
S325080042200B703B68D3E900014FF000024FF000030A0A002379680531D3B20B703B68D3E965
S3250800424000014FF000024FF000030A0C002379680631D3B20B703B68D3E900014FF00002DA
S325080042604FF000030A0E002379680731D3B20B7000BF0C37BD465DF8047B704780B485B0A1
S3250800428000AF0346FB800023FB81FB881B021AB2FB881B0A9BB21BB213431BB2FB81FB89AD
S325080042A018461437BD465DF8047B704780B485B000AF0346FB800023FB81FB881B021AB2D2
S325080042C0B7F906301B121BB2DBB21BB21343FB81B7F90E3018461437BD465DF8047B70479F
S325080042E080B485B000AF78600023FB607B681A067B681B0203F47F031A437B681B1203F462
S325080043007F4313431A467B681B0E1343FB60FB6818461437BD465DF8047B704780B483B059
S3250800432000AF0346FB80FB88002B05D0FB88012B02D0FB88022B03D1FB88044A0021D1545D
S3250800434000BF0C37BD465DF8047B70479401002080B584B000AF03460A46FB8013467B7199
S32508004360FB88AA4AD15CFB887A790A43D1B2A74AD154FB881B021AB27B791BB213431BB2DF
S32508004380FB81FB88DBB23B73FB89B3F5207F00F0F580B3F5207F00F32E81B3F5107F00F095
S325080043A0E680B3F5107F00F32681B3F5087F00F32281B3F5007F14DCB3F5C07F00F0128172
S325080043C0B3F5C07F00F31781B3F5887F00F31381B3F5807F4EDC102B00F39C80002B71DC94
S325080043E009E1A3F201231F2B00F2058101A252F823F000BF1B45000829450008F745000869
S3250800440037450008F7450008F7450008F745000845450008F7450008F7450008F7450008E0
S32508004420F7450008F7450008F7450008F745000853450008F7450008F7450008F7450008F2
S32508004440F7450008F7450008F7450008F7450008F7450008F7450008F7450008F74500082E
S32508004460F7450008F7450008F7450008F745000861450008A3F201130F2B00F2BC8001A2BC
S3250800448052F823F08B4500089D450008F7450008AF450008F7450008F7450008F7450008E3
S325080044A0C1450008F7450008F7450008F7450008F7450008F7450008F7450008F745000804
S325080044C0D3450008013B0F2B00F2958001A252F823F000BF8B4500089D450008F74500086C
S325080044E0AF450008F7450008F7450008F7450008C1450008F7450008F7450008F74500080C
S32508004500F7450008F7450008F7450008F7450008D3450008802B65D06DE0002200214FF4AA
S325080045204070FFF7ABF96DE0002200214FF44470FFF7A4F966E0002200214FF44870FFF78F
S325080045409DF95FE0002200214FF44C70FFF796F958E0002200214FF45070FFF78FF951E084
S32508004560002200214FF45470FFF788F94AE0002200214FF45C70FFF781F943E0002200211A
S325080045804FF45870FFF77AF93CE007F10C03012219464FF46070FFF771F933E007F10C0367
S325080045A0012219464FF46470FFF768F92AE007F10C03012219464FF46870FFF75FF921E000
S325080045C007F10C03012219464FF46C70FFF756F918E007F10C03012219464FF47070FFF746
S325080045E04DF90FE007F10C03012219464FF47470FFF744F906E0002200214FF45C70FFF767
S325080046003DF900BF00BF1037BD4680BD9401002080B483B000AF03460A46FB8013467B712D
S32508004620FB88094AD35C5AB297F90530DB435BB213405AB2FB88D1B2034AD15400BF0C3792
S32508004640BD465DF8047B70479401002080B483B000AF0346FB80FB88034AD35C18460C378F
S32508004660BD465DF8047B70479401002080B483B000AF0346FB80FB88022B18D1184B1B7880
S3250800468003F00503002B0DD1154B5B7803F00503002B07D1124B9B7803F03F03002B01D135
S325080046A0012300E0002303F00103DBB212E0FB880B4AD35C03F01D03002B07D1084B9B78CC
S325080046C003F03F03002B01D1012300E0002303F00103DBB218460C37BD465DF8047B7047C0
S325080046E09401002080B400AF094B1A78084B5B781343DAB2064B9B781343DBB2002B14BFE1
S3250800470001230023DBB21846BD465DF8047B70479401002080B400AF104B4FF47A72DA626D
S325080047200E4B1B6A0D4A23F0200313620B4B1B680A4A43F001031360084B5B6C074A43F412
S3250800474000435364054B1B6A044A43F01003136200BFBD465DF8047B704700BF00400140E6
S3250800476080B582B000AF0346FB71FB7964211846FEF7E0FF0346FB71FA7913469B001344C2
S325080047805B001A46024B9A6300BF0837BD4680BD0040014080B582B000AF0346FB71FB7908
S325080047A0002B07D000224FF480514FF0904004F05BF906E001224FF480514FF0904004F03C
S325080047C053F900BF0837BD4680BD000080B582B000AF786039607B689AB2114B1A80104B3A
S325080047E04FF000029A610E4B4FF000021A620C4B4FF00002DA607A683B68D31A07EE903A56
S32508004800F8EE677A064BC3ED097A0020FFF7A8FF0120FFF7BFFF00BF0837BD4680BD00BFB0
S325080048206400002080B584B000AF7860464B1B881A467B68D31ABB60BB6807EE903AB8EEEF
S32508004840E77A414BD3ED027A67EE277A3E4BC3ED017A3D4B93ED037ABB6807EE903AF8EE2A
S32508004860E77A77EE277A384BC3ED037A364B93ED037A354BD3ED047AB4EEE77AF1EE10FAEB
S3250800488003DD314B1B69304AD3602F4B93ED037A2D4BD3ED057AB4EEE77AF1EE10FA03D58B
S325080048A0294B5B69284AD360274B93ED037A264BD3ED077A67EE277A234BC3ED067ABB6835
S325080048C0C72B10DCBB681E2B0DDDBB6807EE903AB8EEE77A1C4BD3ED0A7A67EE277A1A4BA7
S325080048E0C3ED087A03E0184B4FF000021A62BB6807EE903AF8EEE77A134BC3ED097A124B5E
S3250800490093ED017A104BD3ED067A37EE277A0E4BD3ED087A77EE277AFDEEE77A17EE903A71
S32508004920FB60FB68642B01DD6423FB60FB68002B01DA0023FB60FB68DBB21846FFF710FF22
S3250800494000BF1037BD4680BD6400002080B400AF034B00221A8000BFBD465DF8047B704745
S325080049606400002080B500AF0020FFF7F9FE0020FFF710FFFFF7EAFF00BF80BD80B584B04B
S3250800498000AF0346FB71FB792D2B02D8FB79182B01D8002314E0FEF731FB03462C2B01DDB9
S325080049A000230DE0FB791846FEF702FC0346FB60FEF734FB03461946F868FFF707FF012324
S325080049C018461037BD4680BD80B500AF064B1B88002B06D0FEF722FB03461846FFF722FF3B
S325080049E000E000BF80BD00BF6400002080B485B000AFF860B9607A60084B9A68FB681A60F5
S32508004A00064BDA69BB681A60044B9A6A7B681A6000BF1437BD465DF8047B7047640000208B
S32508004A2080B485B000AF87ED030AC7ED020A87ED011A0B4B1B88002B01D0002309E0084A2D
S32508004A40FB689360064ABB68D361054A7B689362012318461437BD465DF8047B704700BF0A
S32508004A606400002080B400AF0E4A0F4B1188927819809A700D4B01221A700C4B00225A7081
S32508004A800A4B04229A700A4B01221A70084B01225A70074B00229A7000BFBD465DF8047B2D
S32508004AA0704700BF8C010008980100209C010020A001002080B485B000AF0346FB71FB7965
S32508004AC0002B09D11E4A07F10C031268114619800233120C1A7022E0FB79012B09D1194A2E
S32508004AE007F10C031268114619800233120C1A7015E0FB79032B09D1134A07F10C0312680B
S32508004B00114619800233120C1A7008E00F4A07F10C031268114619800233120C1A70002308
S32508004B203A7B62F307037A7B62F30F23BA7B62F3174318461437BD465DF8047B704700BFFD
S32508004B40980100209C010020A00100209400002080B586B000AF3B4600221A605A609A6071
S32508004B60DA601A615A614D4B4D4A1A604B4B00225A604A4B00229A60484B0022DA60474B6A
S32508004B8001221A61454B08225A61444B00221A76424B00225A76414B0622DA613F4B002299
S32508004BA083F820203D4B00229A623C4B0022DA623A4B012283F83020384B4FF480525A63D9
S32508004BC0364B002283F83820344800F09BFF0346002B01D000F01AFB324B3B6006237B60E5
S32508004BE00223BB607F23FB6004233B6100237B613B461946294801F0FFF90346002B01D029
S32508004C0000F004FB0C237B600723BB603B461946224801F0F1F90346002B01D000F0F6FAFE
S32508004C20214B3B6012237B603B4619461B4801F0E3F90346002B01D000F0E8FA1B4B3B6027
S32508004C4018237B603B461946144801F0D5F90346002B01D000F0DAFA154B3B604FF48073FB
S32508004C607B603B4619460D4801F0C6F90346002B01D000F0CBFA0F4B3B604FF483737B6063
S32508004C803B461946054801F0B7F90346002B01D000F0BCFA00BF1837BD4680BDA40100203A
S32508004CA0000004500080F03E0004002A00106032000052C70100008080B5A2B000AF78606C
S32508004CC007F1740300221A605A609A60DA601A6107F118035C220021184606F0D1F97B689F
S32508004CE01B68464A934240F085804FF48043BB614FF04053BB6607F11803184604F046FECB
S32508004D000346002B01D000F081FA3D4BDB6C3C4A43F40053D3643A4BDB6C03F400537B61CD
S32508004D207B69374BDB6C364A43F00103D364344BDB6C03F001033B613B69314BDB6C304A90
S32508004D4043F00203D3642E4BDB6C03F00203FB60FB6820237B670323BB670023FB6707F176
S32508004D60740319464FF0904003F0ECFC80237B670B23BB670023FB6707F1740319464FF0FE
S32508004D80904003F0DFFC01237B670B23BB670023FB6707F1740319461A4803F0D3FC1A4B35
S32508004DA01A4A1A60184B00225A60174B00229A60154B0022DA60144B80221A61124B4FF472
S32508004DC080725A61104B4FF400629A610E4B2022DA610D4B00221A620B4803F043F8034687
S32508004DE0002B01D000F012FA7B68074ADA64064A7B68936200BF8837BD4680BD0000045001
S32508004E000010024000040048080200200800024080B500AF174B184A1A60164B08225A600B
S32508004E20144B00229A60134B0022DA60114B4FF440221A610F4B4FF4A0025A610D4B00223F
S32508004E401A760C4B00225A760A4B00229A76094B0122DA76074B00221A77064B00225A77D4
S32508004E60044801F0AFFE0346002B01D000F0CEF900BF80BD500200200064004080B58AB0BD
S32508004E8000AF786007F1140300221A605A609A60DA601A617B681B68244A934241D1244B3F
S32508004EA09B6D234A43F000739365214B9B6D03F000733B613B691E4BDB6C1D4A43F0020368
S32508004EC0D3641B4BDB6C03F00203FB60FB684FF480737B610223BB610123FB6103233B6294
S32508004EE009237B6207F114031946124803F02AFC4FF400737B610223BB610023FB61032342
S32508004F003B6209237B6207F114031946094803F019FC00220221142002F06FFD142002F019
S32508004F2088FD00BF2837BD4680BD00BF00640040001002400004004880B500AF0D4B0E4AEB
S32508004F401A600C4B00221A710A4B00225A71094B00225A61074B00229A61064B01221A62F3
S32508004F60044802F081FD0346002B01D000F04EF900BF80BD780200200030024080B485B07A
S32508004F8000AF78607B681B680A4A93420BD10A4B9B6C094A43F480539364074B9B6C03F411
S32508004FA08053FB60FB6800BF1437BD465DF8047B704700BF003002400010024080B582B0D0
S32508004FC000AF0C4B9B6C0B4A43F001039364094B9B6C03F001037B607B68002200210B20B5
S32508004FE002F00BFD0B2002F024FD00BF0837BD4680BD00BF0010024080B588B000AF07F108
S325080050000C0300221A605A609A60DA601A61304BDB6C2F4A43F08003D3642D4BDB6C03F094
S325080050208003BB60BB682A4BDB6C294A43F00103D364274BDB6C03F001037B607B68244B27
S32508005040DB6C234A43F00203D364214BDB6C03F002033B603B68002242F224011D4803F063
S3250800506003FD01224FF480514FF0904003F0FCFC42F22403FB6001233B6100237B61002359
S32508005080BB6107F10C031946124803F05BFB4FF48053FB6001233B6101237B610023BB616D
S325080050A007F10C0319464FF0904003F04BFB5023FB6000233B6101237B6107F10C03194641
S325080050C0044803F03FFB00BF2037BD4680BD00BF001002400004004880B500AF0B4B0C4A06
S325080050E01A600A4B03225A60084B40F6FF72DA60064B4FF4AF729A60044803F0E7FC0346A6
S32508005100002B01D000F082F800BF80BD9C0200200030004080B500AF00F06AF800F08FFA42
S3250800512000F013F8FFF768FFFFF748FFFFF710FDFFF76EFE00F03EF9FFF7FEFEFFF7CCFF8D
S3250800514000F002F9FEF74EF8FEE780B596B000AF07F1140344220021184605F091FF3B4612
S3250800516000221A605A609A60DA601A614FF4007003F08AFD0346002B01D000F047F809234F
S325080051807B614FF48033BB610123BB620223FB6303233B6402237B641023BB640723FB64AB
S325080051A002233B6502237B6507F11403184603F0C1FD0346002B01D000F028F80F233B60D7
S325080051C003237B600023BB600023FB6000233B613B460421184604F0C1F90346002B01D04E
S325080051E000F014F804F046FB00BF5837BD4680BD80B400AF034B044A9A6000BFBD465DF852
S32508005200047B704700ED00E00028000880B400AF72B600BFFEE7000080B584B000AF07F18E
S32508005220080300221A605A60134B1B6E124A43F001031366104B1B6E03F001037B607B6873
S325080052400D4B9B6D0C4A43F0805393650A4B9B6D03F080533B603B680023BB600023FB606F
S3250800526007F10803184603F091FC03F0EFFC00BF1037BD4680BD00BF0010024080B500AF26
S3250800528004F008FBFEE780B400AFFEE780B400AFFEE780B400AFFEE780B400AFFEE780B4D0
S325080052A000AF00BFBD465DF8047B704780B400AF00BFBD465DF8047B704780B400AF00BF12
S325080052C0BD465DF8047B704780B500AF00F00CFA00BF80BD80B500AF024802F0DBFE00BFA4
S325080052E080BD00BF0802002080B500AF024802F07AF800BF80BD00BF5002002080B500AFD7
S32508005300024804F005FF00BF80BD00BFF802002080B500AF024804F0FBFE00BF80BD00BF92
S32508005320AC02002080B400AF064BD3F88830054A43F47003C2F8883000BFBD465DF8047BD9
S32508005340704700BF00ED00E080B584B000AF3B1D00221A605A609A60144B154A1A60134BA6
S325080053604F225A60114B00229A60104B4FF47A72DA600E4B00229A610C4804F011FE0346A2
S32508005380002B01D0FFF742FF00237B600023FB603B1D1946054805F05DFD0346002B01D0B8
S325080053A0FFF734FF00BF1037BD4680BDAC0200200014004080B59AB000AF07F158030022AB
S325080053C01A605A609A60DA6007F14C0300221A605A609A6007F1300300221A605A609A6045
S325080053E0DA601A615A619A613B1D2C220021184605F046FE3E4B3F4A1A603D4B03225A60E3
S325080054003B4B00229A603A4B42F21072DA60384B00221A61364B00225A61354B00229A614C
S32508005420334804F0BDFD0346002B01D0FFF7EEFE4FF48053BB6507F1580319462C4805F0BD
S325080054409BF80346002B01D0FFF7E0FE284804F0FEFD0346002B01D0FFF7D8FE0023FB64A0
S3250800546000237B6507F14C031946214805F0F2FC0346002B01D0FFF7C9FE60233B630023E3
S325080054807B630023BB630023FB6300233B6400237B640023BB6407F130030422194614484C
S325080054A004F056FF0346002B01D0FFF7AFFE00237B600023BB600023FB6000233B61002311
S325080054C07B614FF40053BB610023FB623B1D1946074805F025FD0346002B01D0FFF796FEC4
S325080054E0034800F04BF800BF6837BD4680BD00BFF80200200040014080B584B000AF786038
S325080055007B681B681A4A934214D11A4B9B6D194A43F020039365174B9B6D03F02003FB6000
S32508005520FB6800220321372002F067FA372002F080FA18E07B681B680F4A934213D10D4B7F
S325080055401B6E0C4A43F4803313660A4B1B6E03F48033BB60BB6800220221182002F04DFA7F
S32508005560182002F066FA00BF1037BD4680BD00BF00140040001002400040014080B588B0FA
S3250800558000AF786007F10C0300221A605A609A60DA601A617B681B68114A93421CD1114B8B
S325080055A0DB6C104A43F00203D3640E4BDB6C03F00203BB60BB684FF40043FB6002233B6155
S325080055C000237B610023BB610E23FB6107F10C031946054803F0B6F800BF2037BD4680BD48
S325080055E0004001400010024000040048DFF834D0FFF798FE0C480D490D4A002302E0D458E5
S32508005600C4500433C4188C42F9D30A4A0A4C002301E013600432A242FBD305F00DFDFFF7BD
S3250800562079FDFEE70000012000000020C4000020DCB40008C800002048030020FEE780B5D7
S3250800564082B000AF0023FB71032002F0CBF9012000F00EF80346002B02D00123FB7101E025
S32508005660FFF7DAFDFB7918460837BD4680BD000080B584B000AF78600023FB73174B1B7888
S32508005680002B23D0164B1A68144B1B7819464FF47A73B3FBF1F3B2FBF3F3184602F0D7F935
S325080056A00346002B0FD17B680F2B09D8002279684FF0FF3002F0A1F90A4A7B68136007E0FC
S325080056C00123FB7304E00123FB7301E00123FB73FB7B18461037BD4680BD00BFA000002067
S325080056E0980000209C00002080B400AF064B1B781A46064B1B681344044A136000BFBD4653
S325080057005DF8047B704700BFA00000204403002080B400AF034B1B681846BD465DF8047B21
S32508005720704700BF4403002080B483B000AF786039607B689B6823F47C123B681A437B6889
S325080057409A6000BF0C37BD465DF8047B704780B483B000AF786039607B689B6823F0E072DF
S325080057603B681A437B689A6000BF0C37BD465DF8047B704780B483B000AF78607B689B68DA
S3250800578003F0E07318460C37BD465DF8047B704780B487B000AFF860B9607A603B60FB6823
S325080057A060331A46BB689B0013447B617B691A68084B13407A6802F0F8413A680A43134399
S325080057C043F000427B691A6000BF1C37BD465DF8047B704700F0FF0380B485B000AF786066
S325080057E039607B6860331A463B689B001344FB60FB681B6803F0F84318461437BD465DF827
S32508005800047B704780B487B000AFF860B9607A60FB6860331A46BB689B0013447B617B69B4
S325080058201B6823F000427B681A437B691A6000BF1C37BD465DF8047B704780B483B000AF2E
S3250800584078607B68DB6803F44063002B01D1012300E0002318460C37BD465DF8047B70474F
S3250800586080B487B000AFF860B9607A60FB6830331A46BB681B0A9B0003F00C0313447B6177
S325080058807B691A68BB6803F01F031F2101FA03F3DB431A407B689B0E03F01F01BB6803F0FE
S325080058A01F0301FA03F31A437B691A6000BF1C37BD465DF8047B704780B487B000AFF860FA
S325080058C0B9607A60FB6814331A46BB685B0E9B0003F0040313447B617B691A68BB681B0DB8
S325080058E003F01F03072101FA03F3DB431A40BB681B0D03F01F03796801FA03F31A437B6981
S325080059001A6000BF1C37BD465DF8047B7047000080B485B000AFF860B9607A60FB68D3F8CE
S32508005920B020BB68C3F31203DB431A407B6803F018030849D940BB680B40C3F312031A4332
S32508005940FB68C3F8B02000BF1437BD465DF8047B704700BFFFFF070080B483B000AF786001
S325080059607B689B6823F0204323F03F037A68936000BF0C37BD465DF8047B704780B483B09C
S3250800598000AF78607B689B6803F00053B3F1005F01D1012300E0002318460C37BD465DF851
S325080059A0047B704780B483B000AF78607B689B6823F0104323F03F0343F080527B689A6032
S325080059C000BF0C37BD465DF8047B704780B483B000AF78607B689B6803F08053B3F1805F0C
S325080059E001D1012300E0002318460C37BD465DF8047B704780B483B000AF78607B689B689D
S32508005A0023F0004323F03F0343F001027B689A6000BF0C37BD465DF8047B704780B483B0C3
S32508005A2000AF78607B689B6823F0004323F03F0343F002027B689A6000BF0C37BD465DF8D2
S32508005A40047B704780B483B000AF78607B689B6803F00103012B01D1012300E000231846B4
S32508005A600C37BD465DF8047B704780B483B000AF78607B689B6803F00203022B01D1012358
S32508005A8000E0002318460C37BD465DF8047B704780B483B000AF78607B689B6823F000439C
S32508005AA023F03F0343F004027B689A6000BF0C37BD465DF8047B704780B483B000AF7860EF
S32508005AC07B689B6803F00403042B01D1012300E0002318460C37BD465DF8047B704780B44D
S32508005AE083B000AF78607B689B6803F00803082B01D1012300E0002318460C37BD465DF8D5
S32508005B00047B704780B588B000AF78600023FB770023BB607B68002B01D101232CE17B6886
S32508005B201B69002B7B685B6D002B09D17868FFF7C3F87B6800229A657B68002283F8502073
S32508005B407B681B681846FFF719FF0346002B04D07B681B681846FFF7FFFE7B681B681846A2
S32508005B60FFF734FF0346002B15D17B681B681846FFF718FF824B1B689B09824AA2FB032340
S32508005B809B0901335B00BB6002E0BB68013BBB60BB68002BF9D17B681B681846FFF716FF66
S32508005BA00346002B0DD17B685B6D43F010027B685A657B689B6D43F001027B689A650123CC
S32508005BC0FB777B681B681846FFF776FF78617B685B6D03F01003002B40F0C5807B69002BDD
S32508005BE040F0C1807B685B6D23F4817343F002027B685A657B681B681846FFF723FF034672
S32508005C00002B0BD16048FFF71DFF0346002B05D17B685B6819465D48FFF786FD7B685B7E8C
S32508005C205A037B685B6B1A437B68DB681A437B689B681A437B6893F820301B041343BB61DE
S32508005C407B6893F82030012B06D17B685B6A013B5B04BA691343BB617B689B6A002B09D0B1
S32508005C607B689B6A03F470727B68DB6A1343BA691343BB617B681B68DA68454B13407A68D5
S32508005C801268B9690B43D3607B681B681846FFF713FF38617B681B681846FFF720FFF86043
S32508005CA03B69002B3DD1FB68002B3AD17B681B7E9A037B6893F830305B001343BB617B68C9
S32508005CC01B68DB6823F4804323F002037A681268B9690B43D3607B6893F83830012B18D114
S32508005CE07B681B681B6923F4FF6323F004037A68D16B7A68126C11437A68526C11437A6871
S32508005D00926C0A431A437B681B6842F001021A6107E07B681B681A697B681B6822F001026C
S32508005D201A617B681B69012B0CD17B681B681B6B23F00F017B68DB695A1E7B681B680A4309
S32508005D401A6307E07B681B681A6B7B681B6822F00F021A637B685B6D23F0030343F00102E6
S32508005D607B685A6507E07B685B6D43F010027B685A650123FB77FB7F18462037BD4680BDF5
S32508005D8098000020632D3E05000004500003045007C0F0FF80B586B000AF786039607B689B
S32508005DA05B69082B02D108237B6110E07B681B68DB6803F00103002B07D07B685B6D43F094
S32508005DC020027B685A6501236FE004237B61FFF79FFC386121E03B68B3F1FF3F1DD0FFF7E8
S32508005DE097FC02463B69D31A3A689A4202D33B68002B12D17B681B681A687B691340002BDB
S32508005E000BD17B685B6D43F004027B685A657B68002283F85020032347E07B681B681A68ED
S32508005E207B691340002BD6D07B685B6D43F400727B685A657B681B681846FFF7FEFC034659
S32508005E40002B1CD07B685B7E002B18D17B681B681B6803F00803082B11D17B685B6D23F48F
S32508005E6080727B685A657B685B6D03F48053002B05D17B685B6D43F001027B685A657B68A4
S32508005E801B68DB68FB607B69082B04D17B681B6808221A6008E0FB6803F48043002B03D1D9
S32508005EA07B681B680C221A60002318461837BD4680BD000080B586B000AFF860B9607A6051
S32508005EC0FB681B681846FFF7F7FD0346002B67D1FB6893F85030012B01D1022363E0FB68A3
S32508005EE0012283F85020F86800F066FC0346FB75FB7D002B4FD1FB685B6D23F4706323F030
S32508005F00010343F48072FB685A65FB685B6D03F48053002B06D0FB689B6D23F00602FB6845
S32508005F209A6502E0FB6800229A65FB68DB6C204ADA62FB68DB6C1F4A1A63FB68DB6C1E4AFC
S32508005F405A63FB681B681C221A60FB68002283F85020FB681B685A68FB681B6842F0100296
S32508005F605A60FB681B68DA68FB681B6842F00102DA60FB68D86CFB681B6840331946BA685B
S32508005F807B6802F027F80346FB75FB681B681846FFF77EFD06E0FB68002283F8502001E05A
S32508005FA00223FB75FB7D18461837BD4680BD00BF836900085B6A0008776A000880B483B009
S32508005FC000AF786000BF0C37BD465DF8047B704780B483B000AF786000BF0C37BD465DF854
S32508005FE0047B704780B483B000AF786000BF0C37BD465DF8047B704780B5B6B000AF7860BD
S325080060003960002387F8D7300023FB607B6893F85030012B01D10223B9E37B68012283F884
S3250800602050207B681B681846FFF746FD0346002B40F09E833B685B68052B24D83B685B6828
S32508006040023B032B1BD801A252F823F05D600008656000086D600008756000083B680C22BF
S325080060605A6011E03B6812225A600DE03B6818225A6009E03B684FF480725A6004E03B6850
S3250800608006225A6000E000BF7B6818683B6859683B681B681A46FFF7E3FB7B681B6818468C
S325080060A0FFF70AFDC7F8D0007B681B681846FFF716FDC7F8CC00D7F8D030002B40F0A6819D
S325080060C0D7F8CC30002B40F0A1817B6818683B6819683B689B681A46FFF7EEFB3B685A6998
S325080060E07B681B68DB68DB0803F003035B0002FA03F3C7F8C8303B681B69042B0AD07B68F6
S3250800610018683B6819693B681A68D7F8C830FFF73FFB7BE17B681B6800211846FFF75CFB22
S325080061200346C3F31203002B0AD17B681B6800211846FFF751FB03469B0E03F01F021EE00C
S325080061407B681B6800211846FFF746FB0346C7F8BC30D7F8BC3093FAA3F3C7F8B830D7F8CD
S32508006160B830C7F8C030D7F8C030002B01D1202304E0D7F8C030B3FA83F3DBB21A463B6825
S325080061801B68C3F31203002B05D13B681B689B0E03F01F0318E03B681B68C7F8B030D7F832
S325080061A0B03093FAA3F3C7F8AC30D7F8AC30C7F8B430D7F8B430002B01D1202304E0D7F83F
S325080061C0B430B3FA83F3DBB29A4206D17B681B68002200211846FFF715FB7B681B680121D5
S325080061E01846FFF7F9FA0346C3F31203002B0AD17B681B6801211846FFF7EEFA03469B0E7A
S3250800620003F01F021EE07B681B6801211846FFF7E3FA0346C7F8A430D7F8A43093FAA3F303
S32508006220C7F8A030D7F8A030C7F8A830D7F8A830002B01D1202304E0D7F8A830B3FA83F3F6
S32508006240DBB21A463B681B68C3F31203002B05D13B681B689B0E03F01F0318E03B681B684F
S32508006260C7F89830D7F8983093FAA3F3C7F89430D7F89430C7F89C30D7F89C30002B01D196
S32508006280202304E0D7F89C30B3FA83F3DBB29A4206D17B681B68002201211846FFF7B2FA21
S325080062A07B681B6802211846FFF796FA0346C3F31203002B0AD17B681B6802211846FFF76C
S325080062C08BFA03469B0E03F01F021EE07B681B6802211846FFF780FA0346C7F88C30D7F83D
S325080062E08C3093FAA3F3C7F88830D7F88830C7F89030D7F89030002B01D1202304E0D7F8B2
S325080063009030B3FA83F3DBB21A463B681B68C3F31203002B05D13B681B689B0E03F01F03C9
S3250800632016E03B681B68C7F88030D7F8803093FAA3F3FB67FB6FC7F88430D7F88430002B35
S3250800634001D1202304E0D7F88430B3FA83F3DBB29A4206D17B681B68002202211846FFF751
S3250800636051FA7B681B6803211846FFF735FA0346C3F31203002B0AD17B681B6803211846B5
S32508006380FFF72AFA03469B0E03F01F0217E07B681B6803211846FFF71FFA03467B677B6FCC
S325080063A093FAA3F33B673B6FBB67BB6F002B01D1202303E0BB6FB3FA83F3DBB21A463B6814
S325080063C01B68C3F31203002B05D13B681B689B0E03F01F0311E03B681B68BB66BB6E93FA8E
S325080063E0A3F37B667B6EFB66FB6E002B01D1202303E0FB6EB3FA83F3DBB29A4206D17B6893
S325080064001B68002203211846FFF7FCF97B681B681846FFF717FB0346002B40F03F817B6849
S3250800642018683B6819683B68DB681A46FFF770FA3B68DB688E4A934240F030817B6818682D
S325080064403B681B68C3F31203002B0BD13B681B689B0E013303F01F03092B94BF0123002350
S32508006460DBB219E03B681B68FB65FB6D93FAA3F3BB65BB6D3B663B6E002B01D1202303E0C2
S325080064803B6EB3FA83F3DBB2013303F01F03092B94BF01230023DBB2002B79D03B681B6857
S325080064A0C3F31203002B07D13B681B689B0E01339B0603F0F84215E03B681B683B653B6DCC
S325080064C093FAA3F3FB64FB6C7B657B6D002B01D1202303E07B6DB3FA83F3DBB201339B066D
S325080064E003F0F8423B681B68C3F31203002B09D13B681B689B0E013303F01F03012101FA36
S3250800650003F317E03B681B687B647B6C93FAA3F33B643B6CBB64BB6C002B01D1202303E0C2
S32508006520BB6CB3FA83F3DBB2013303F01F03012101FA03F342EA03013B681B68C3F31203F9
S32508006540002B0AD13B681B689B0E013303F01F0213465B0013441B0518E03B681B68BB63A9
S32508006560BB6B93FAA3F37B637B6BFB63FB6B002B01D1202303E0FB6BB3FA83F3DBB20133CF
S3250800658003F01F0213465B0013441B050B4380E03B681B68C3F31203002B07D13B681B68E6
S325080065A09B0E01339B0603F0F84215E03B681B68FB62FB6A93FAA3F3BB62BB6A3B633B6B9C
S325080065C0002B01D1202303E03B6BB3FA83F3DBB201339B0603F0F8423B681B68C3F3120341
S325080065E0002B09D13B681B689B0E013303F01F03012101FA03F317E03B681B683B623B6AFE
S3250800660093FAA3F3FB61FB697B627B6A002B01D1202303E07B6AB3FA83F3DBB2013303F0E8
S325080066201F03012101FA03F342EA03013B681B68C3F31203002B0DD13B681B689B0E0133EA
S3250800664003F01F0213465B0013441E3B1B0543F000731DE03B681B687B617B6993FAA3F3E8
S325080066603B613B69BB61BB69002B03D1202305E000007F40BB69B3FA83F3DBB2013303F0AB
S325080066801F0213465B0013441E3B1B0543F000730B433A6892681946FFF70EF93B681A6836
S325080066A03D4B1340002B6CD03C48FFF763F8C7F8C4003B681B683A4A934227D1D7F8C430F8
S325080066C003F40003002B21D17B681B68354A934257D1D7F8C43043F4000319462F48FFF7EA
S325080066E036F8314B1B689B09304AA2FB03239B095A1C13465B0013449B00FB6002E0FB681E
S32508006700013BFB60FB68002BF9D13AE03B681B68274A934213D1D7F8C43003F08073002B3E
S325080067200DD17B681B681F4A93422AD1D7F8C43043F0807319461948FFF709F821E03B688A
S325080067401B681C4A93421CD1D7F8C43003F48003002B16D17B681B68124A934211D1D7F8E9
S32508006760C43043F4800319460C48FEF7F0FF08E07B685B6D43F020027B685A65012387F899
S32508006780D7307B68002283F8502097F8D7301846D837BD4680BD00BF000008800003045013
S325080067A0000052C70000045098000020632D3E05000084CB0100008080B584B000AF786013
S325080067C00023BB607B681B681846FFF73BF90346002B69D17B681B689A68364B1340002B6A
S325080067E00DD07B685B6D43F010027B685A657B689B6D43F001027B689A65012355E07B68DD
S325080068001B681846FFF7F6F82B48FEF7B3FF034603F40003002B13D0284B1B689B09284A2E
